:020000040000FA
:0400000080312728FC
:100008007E1480310B1F09280A2825282100111D7C
:100018000E280F281A282000111D132814281A2822
:100028003E088A003D080A00803125282100911DDC
:100038001E281F2825282000911D2328242825282C
:1000480014287E10090080312928203084000030CF
:10005800850020308331AC2380317E10200081312F
:10006800F8298331B8238031003A03193C283D2808
:100078006D284A288331E623803189288331E1239A
:10008800803189288331D7238031892820002F089F
:10009800FA007A08F9000630203E86008701413FC1
:1000A8008A00403F0A008031FB00FC017C08003ACE
:1000B80003195F2846287B08013A03194628033AA2
:1000C80003193E28013A03194228073A031946281A
:1000D800462820003C101730203E86008701403F0C
:1000E80084008501810A00088331F02380310130C2
:1000F8002000B8020030B93B38083904031D8528B0
:1001080086288828063089280330080084311A2474
:100118008031FA0020003708860087017A088100BC
:100128000130FA007A08B7070130B8020030B93B4D
:10013800380839040319A128A228A7288331FD23E8
:1001480080310530CF28BC15B1288331C8238031D0
:10015800CF288331CD238031CF282C08FA007A08A4
:10016800F90021088A0020080A008031FB00FC0100
:100178007C08003A0319C128AD287B08013A031905
:10018800AD28033A0319A928013A0319A928073AFF
:100198000319AD28AD2808002000C600C701C70A0A
:1001A8003C19D728D82813294608C5004508B600A1
:1001B800BC103C153C100E30C5004508BA00F430A0
:1001C800B4000130B500BC152830A0000430A100EF
:1001D800AC012830A2000430A300AD012830A400EF
:1001E8000430A500AE012830A6000430A700AF01F6
:1001F8002630A8000430A900B001F930C30003304C
:10020800C4008331B2238031843111248031833199
:100218005E2380318431052480312000C7014708DE
:10022800080022008C018D018E01373021008C00DE
:10023800F0308D00FF308E00FF3023008E00F0304C
:100248008D0007308C0024008D018C018E01250063
:100258008C018D018E01373026008C00F0308D0026
:10026800FF308E003F3027008C00F0308D00FF30CB
:100278008E0005303C00A00019303D009400183075
:10028800950004303C00A10008002000BC15592945
:100298008331DC238131772984311724813103307C
:1002A80077298331D723813177292C08FA007A08F6
:1002B800F90021088A0020080A008131FB00FC01AE
:1002C8007C08003A0319692955297B08013A031962
:1002D8005529033A03194C29013A03194C29073ABD
:1002E800031950295529080020003C100230FA0053
:1002F8007A08BB0087298331DC238131A329833124
:10030800D7238131A3292E08FA007A08F90004308E
:10031800203E86008701413F8A00403F0A00813124
:10032800FB00FC017C08003A03199B2983297B0800
:10033800023A03197F29013A03197F298329080002
:1003480084311424813120003C1CAB29AC29B92903
:100358008331B8238131003A0319B329B429B92963
:100368000F302000C0004008BA0020003A08C00042
:10037800C101C035C10D6C30400784008230413D59
:100388008500013F8A00003F0A0081312000C20039
:100398004208BA0008002000CF0020004F08803132
:1003A800D0208131003A0319DA29DB29D12920002C
:1003B8004E08C4004D08C3004C08833130238131F6
:1003C80000302000C800C900CA01833150238131A0
:1003D8008331BE2381318231A8228131013A031948
:1003E800F629F729EF2908008331202381318B175B
:1003F8000B173F302000D0005008CC000130CD0052
:100408000030CE0027308131CF21813101302000EA
:10041800D0005008BF0715302000D1004B30D00065
:10042800BE30890B152AD00B152AD10B152A0000CE
:10043800FD29803127282000C700430844040319F8
:10044800262A272A382A4735203E8600870143086E
:10045800C03F4408C13F4508C60047082C3E8600F7
:10046800870146088100452A4735203E86008701D6
:100478002830C03F0430C13F47082C3E8600870122
:1004880081010800F4007008710403194C2A4D2AF0
:100498005E2A7435203E860087017008C03F7108C7
:1004A800C13F7208F30074082C3E86008701730868
:1004B80081006B2A7435203E860087012830C03FB2
:1004C8000430C13F74082C3E860087018101080072
:1004D800EB3403348C3403349D3403343534003422
:1004E8008A340034A534033449340134E6340334FF
:1004F800E1340334DC340334D7340334D2340334E2
:10050800CD340334C8340334C33403347834013469
:100518002000C400C501C50ABC18932A942AA52A3C
:10052800BC14C501440803199A2A9B2A9E2ABA01B9
:10053800BA0AA22A0230C3004308BA008431082448
:1005480082312000450808002000C401C40ABC18F4
:10055800AE2AAF2AC22A3C11FF30C3004308B600B6
:1005680084311124823184310B24823184310E2468
:10057800823120003B08C3004308C4004408080037
:10058800790886008701403FF000413FF100790873
:10059800023E860087010108833140238231003002
:1005A800F500F600F70183316C2382310230080030
:1005B8000130F0000030F1007908833140238231A6
:1005C8000030F500F600F70183316C2382310430E6
:1005D80008000230F0000030F10079088331402330
:1005E80082310030F500F600F70183316C23823147
:1005F800023008000130F0000030F1007908833142
:10060800402382310030F500F600F70183316C2376
:100618008231023008000230F0000030F100790821
:100628008331402383310030F500F600F701833130
:100638006C2383310430080083319523833183315F
:1006480079238331813115218331833183238331A8
:100658008331F523833108002000C600BC1D352BEB
:10066800362B3F2B4608C5004508B7004408B9009B
:100678004308B800BC110800F3002000BC1D452B3E
:10068800462B4F2B7308F2007208B7007108B900A7
:100698007008B800BC11080020004908C4004808C8
:1006A800C3004A08CB004B08C500023082311F2224
:1006B800833108002400951A622B632B6B2BC03002
:1006C80094000830950096014F3092009516080066
:1006D8007608F1007508F0007708F8007808F2004D
:1006E80000308231462283310800C0302400940053
:1006F8000830950096014F3092009512080060303E
:10070800320099009B019D0107309F009E0108005F
:1007180020003C140314360D8331F0238331053057
:10072800080032009101920193019401950196010C
:10073800080020003C1436358331F0238331033020
:10074800080020003C1084311D2483310430080047
:10075800640080010131890BAD2B0034200044086E
:10076800BE004308BD0008002400160E890C890C41
:1007780001390800003082318C22833108002000C2
:10078800BC10BB010E3008008431012483310930CC
:1007980008008431012483310A3008008331FD23A5
:1007A800833105300800843120248331003008006B
:1007B8008431232483310130080084312324833198
:1007C80002300800843123248331013008002000DE
:1007D800BC10BB010E300800F00070082400910026
:1007E800080016302100970008008131A4218331C8
:1007F80008002400961216160800240096161616ED
:100808000800210091150800240016140800210092
:100818009111080024009512080020009111080089
:1008280020009111080020009115080024001108EB
:100838000800240096150800240016150800240056
:0C0848009614080005300800013008007C
:020000040001F9
:08000E008CFFF3FFFFFFFFFF71
:00000001FF
